:100000000C9462000C948A000C948A000C948A0070
:100010000C948A000C948A000C948A000C948A0038
:100020000C948A000C948A000C948A000C948A0028
:100030000C948A000C948A000C948A000C948A0018
:100040000C9409020C948A000C9479020C945302CB
:100050000C948A000C948A000C948A000C948A00F8
:100060000C948A000C948A000000000023002600F3
:10007000290000000008000201000003040700003E
:1000800000000000000000000000250028002B00F8
:1000900000000000240027002A00040404040404D3
:1000A0000404020202020202030303030303010227
:1000B00004081020408001020408102001020408F6
:1000C0001020AB0211241FBECFEFD8E0DEBFCDBFA2
:1000D00011E0A0E0B1E0E8E7F9E002C005900D9280
:1000E000A831B107D9F721E0A8E1B1E001C01D9224
:1000F000A63DB207E1F710E0C2E6D0E004C02197C8
:10010000FE010E94B404C136D107C9F70E9405035D
:100110000C94BA040C94000090E0FC01E255FF4FEF
:10012000249186569F4FFC018491882399F090E09A
:10013000880F991FFC01E057FF4FA591B491FC0176
:10014000EA57FF4F859194918FB7F894EC91E22B89
:10015000EC938FBF0895AF92BF92CF92DF92EF9250
:10016000FF920F931F93CF93DF936C017B018B0161
:10017000040F151FEB015E01AE18BF08C017D107B1
:1001800059F06991D601ED91FC910190F081E02D3B
:10019000C6010995892B79F7C501DF91CF911F9190
:1001A0000F91FF90EF90DF90CF90BF90AF900895A8
:1001B000FC01538D448D252F30E0842F90E0821B6D
:1001C000930B541710F0CF96089501970895FC01F2
:1001D000918D828D981761F0A28DAE0FBF2FB11D4A
:1001E0005D968C91928D9F5F9F73928F90E00895A2
:1001F0008FEF9FEF0895FC01918D828D981731F05C
:10020000828DE80FF11D858D90E008958FEF9FEFAF
:100210000895FC01918D228D892F90E0805C9F4F85
:10022000821B91098F739927089587E291E00E94BC
:10023000090121E0892B09F420E0822F089580E054
:1002400090E0892B29F00E94150181110C94000087
:100250000895FC01A48DA80FB92FB11DA35ABF4F5B
:100260002C91848D90E001968F739927848FA689B5
:10027000B7892C93A089B1898C91837080648C9309
:10028000938D848D981306C00288F389E02D8081B8
:100290008F7D80830895EF92FF920F931F93CF93EA
:1002A000DF93EC0181E0888F9B8D8C8D98131AC0B1
:1002B000E889F989808185FF15C09FB7F894EE8998
:1002C000FF896083E889F9898081837080648083F5
:1002D0009FBF81E090E0DF91CF911F910F91FF9040
:1002E000EF900895F62E0B8D10E00F5F1F4F0F73E8
:1002F0001127E02E8C8D8E110CC00FB607FCFACFA3
:10030000E889F989808185FFF5CFCE010E94290116
:10031000F1CFEB8DEC0FFD2FF11DE35AFF4FF08273
:100320009FB7F8940B8FEA89FB8980818062CFCFD9
:10033000CF93DF93EC01888D8823B9F0AA89BB891C
:10034000E889F9898C9185FD03C0808186FD0DC007
:100350000FB607FCF7CF8C9185FFF2CF808185FF28
:10036000EDCFCE010E942901E9CFDF91CF91089511
:10037000FC0101900020E9F73197AF01481B590BB0
:10038000BC0187E291E00C94AB008F929F92AF92F8
:10039000BF920F931F93CF93DF93CDB7DEB7A19793
:1003A0000FB6F894DEBF0FBECDBF19A2423008F4DD
:1003B0004AE08E010F5D1F4F842E912CB12CA12C91
:1003C000A50194010E949204E62FB901CA01EA3006
:1003D000F4F4E05DD801EE938D01232B242B252B23
:1003E00079F790E080E0109719F0CD010E94B801F4
:1003F000A1960FB6F894DEBF0FBECDBFDF91CF91AF
:100400001F910F91BF90AF909F908F900895E95CDE
:10041000E1CF1F920F920FB60F9211242F933F93AB
:100420008F939F93AF93BF93809123019091240169
:10043000A0912501B09126013091220123E0230FE4
:100440002D3758F50196A11DB11D209322018093EF
:10045000230190932401A0932501B093260180915C
:100460001E0190911F01A0912001B09121010196E0
:10047000A11DB11D80931E0190931F01A093200127
:10048000B0932101BF91AF919F918F913F912F9197
:100490000F900FBE0F901F90189526E8230F02961D
:1004A000A11DB11DD2CF1F920F920FB60F92112432
:1004B0002F933F934F935F936F937F938F939F936C
:1004C000AF93BF93EF93FF9387E291E00E942901DE
:1004D000FF91EF91BF91AF919F918F917F916F911C
:1004E0005F914F913F912F910F900FBE0F901F90F2
:1004F00018951F920F920FB60F9211242F938F937E
:100500009F93EF93FF93E0913701F0913801808141
:10051000E0913D01F0913E0182FD1BC090818091F0
:1005200040018F5F8F7320914101821741F0E0916C
:100530004001F0E0E95DFE4F958F80934001FF910F
:10054000EF919F918F912F910F900FBE0F901F9061
:1005500018958081F4CFCF93DF93E7E2F1E0138227
:10056000128288EE93E0A0E0B0E084839583A683B6
:10057000B78384E091E09183808385EC90E0958758
:10058000848784EC90E09787868780EC90E0918B5D
:10059000808B81EC90E0938B828B82EC90E0958B4A
:1005A000848B86EC90E0978B868B118E128E138E47
:1005B000148ECAECD1E089E090E0998388838AE0C8
:1005C00090E09B838A838BE090E09D838C8387E01F
:1005D00090E09F838E83198618861B861A8689E091
:1005E0000E948C008A810E948C008C810E948C0069
:1005F000E4ECF1E082E090E0918380831382128248
:1006000015821482DF91CF910895789484B5826029
:1006100084BD84B5816084BD85B5826085BD85B5A6
:10062000816085BD80916E00816080936E00109224
:10063000810080918100826080938100809181009F
:100640008160809381008091800081608093800030
:100650008091B10084608093B1008091B00081608E
:100660008093B00080917A00846080937A008091BA
:100670007A00826080937A0080917A008160809312
:100680007A0080917A00806880937A001092C1008D
:10069000E0913701F091380182E08083E0913301ED
:1006A000F09134011082E0913501F09136018FEC28
:1006B000808310923F01E0913B01F0913C0186E084
:1006C0008083E0913901F0913A01808180618083DB
:1006D000E0913901F0913A01808188608083E09156
:1006E0003901F0913A01808180688083E09139017D
:1006F000F0913A0180818F7D8083C0E0D0E011E0ED
:100700008091C4019091C5019927FC01EE58FF4FDB
:100710002491FC01E255FF4F3491FC01E656FF4F56
:10072000E49190E080E0EE23E1F0222359F02330C1
:1007300009F4E1C008F0D4C0213009F4E2C022304D
:1007400009F4E3C0F0E0EE0FFF1FE859FF4FA59159
:10075000B491EC913E2341E020E009F440E0842F85
:10076000922F282F217030911D01231709F43EC0CC
:100770003FB7F894409123015091240160912501E5
:10078000709126013FBFC0901901D0901A01E090EE
:100790001B01F0901C014C195D096E097F09423361
:1007A00051056105710510F13FB7F894409123019F
:1007B0005091240160912501709126013FBF409323
:1007C000190150931A0160931B0170931C0120932F
:1007D0001D0110921801892BC1F18091C6019091E1
:1007E000C70101969093C7018093C60180911D01B6
:1007F000882359F180911801811127C02FB7F894EF
:100800008091230190912401A0912501B0912601AE
:100810002FBF4091190150911A0160911B017091F5
:100820001C01841B950BA60BB70B843F9140A105BF
:10083000B10558F0109318018091C8019091C90139
:1008400001969093C9018093C801C090C801D090CF
:10085000C9010D2C000CEE08FF084AE0C701B601E3
:10086000F7FE0DC06DE287E291E00E944B01662722
:100870007727CB016C197D098E099F094AE00E94F8
:10088000C50182E191E00E94B801C090C601D090FC
:10089000C7010D2C000CEE08FF084AE0C701B601A5
:1008A000F7FE0DC06DE287E291E00E944B016627E2
:1008B0007727CB016C197D098E099F094AE00E94B8
:1008C000C50184E191E00E94B801209709F418CF96
:1008D0000E941501882309F413CF0E94000010CF55
:1008E0002730B1F02830D1F0243009F02BCF80919F
:1008F00080008F7D03C0809180008F77809380007F
:1009000021CF84B58F7784BD1DCF84B58F7DFBCF7C
:100910008091B0008F778093B00014CF8091B000A9
:100920008F7DF9CFA1E21A2EAA1BBB1BFD010DC0C2
:10093000AA1FBB1FEE1FFF1FA217B307E407F5078F
:1009400020F0A21BB30BE40BF50B661F771F881F6B
:10095000991F1A9469F760957095809590959B0101
:10096000AC01BD01CF010895EE0FFF1F0590F4917A
:08097000E02D0994F894FFCF7B
:10097800000000004B01AB00D80098010901E70016
:08098800FB0020000D0A000035
:00000001FF
